:020000040800F2
:100000008008002029020008DD3B00089538000820
:10001000D93B0008210400086D48000800000000DA
:10002000000000000000000000000000513E000839
:10003000C9080008000000004D3C0008553E0008BB
:10004000430200084302000843020008430200087C
:10005000430200084302000843020008430200086C
:100060004302000843020008430200082504000878
:10007000430200084302000843020008430200084C
:100080003504000843020008430200084302000848
:10009000430200084302000843020008430200082C
:1000A000430200084302000843020008430200081C
:1000B000430200084302000843020008430200080C
:1000C00043020008430200084302000843020008FC
:1000D00043020008430200084302000843020008EC
:1000E00043020008430200084302000843020008DC
:1000F00043020008293F00084302000843020008A9
:10010000430200084302000843020008513C000873
:100110004D4400084302000843020008430200085F
:10012000430200084302000843020008430200089B
:100130004302000800000000000000004302000825
:10014000430200084302000843020008430200087B
:10015000430200084302000843020008430200086B
:10016000430200084302000843020008430200085B
:1001700043020008430200080000000000000000E5
:10018000430200084302000800F002F800F03CF8C7
:100190000AA090E8000C82448344AAF10107DA45E2
:1001A00001D100F031F8AFF2090EBAE80F0013F0F8
:1001B000010F18BFFB1A43F0010318474C48000019
:1001C0006C480000103A24BF78C878C1FAD85207AA
:1001D00024BF30C830C144BF04680C6070470000C1
:1001E0000023002400250026103A28BF78C1FBD840
:1001F000520728BF30C148BF0B6070471FB504F0DD
:10020000E5FB1FBD10B510BD00F0D0F81146FFF79B
:10021000F5FF04F0A1FB00F0EEF803B4FFF7F2FFE6
:1002200003BC00F0F5F80000094880470948004782
:10023000FEE7FEE7FEE7FEE7FEE7FEE7FEE7FEE796
:10024000FEE7FEE704480549054A064B70470000F3
:10025000153F000889010008800200208008002066
:10026000800400208004002053EA020C00F0698022
:100270002DE9F04B4FF00006002B1FBFB3FA83F5BA
:1002800003FA05F424FA05F65E4012BF1643B2FAEB
:1002900082F502FA05F4C5F120051EBF22FA05FC1D
:1002A00044EA0C04203556EA044C4FEA144418BFC3
:1002B000641C4FF000084FF00009904271EB030CF2
:1002C00039D3002919BFB1FA81F701FA07F6B0FA5C
:1002D00080F700FA07F6C7F120071EBF20FA07FCD7
:1002E00046EA0C062037B6FBF4FCA7EB0507103FE7
:1002F00007F01F0BCBF120062CFA06F60CFA0BFBCD
:1003000044BFB3460026202FA4BF5E464FF0000B2B
:100310005BEA060C08BF4FF0010B19EB0B0948EB29
:100320000608ABFB027C06FB02CC0BFB03CCC01B1C
:1003300071EB0C01C1E70B46024641464846BDE859
:10034000F08B13B5084318BF4FF0FF300146AFF3F1
:100350000080BDE81C4070474FF0000200B5134616
:1003600094469646203922BFA0E80C50A0E80C50D5
:10037000B1F12001BFF4F7AF090728BFA0E80C5086
:1003800048BF0CC05DF804EB890028BF40F8042B7F
:1003900008BF704748BF20F8022B11F0804F18BFEC
:1003A00000F8012B7047704770477047754600F0A2
:1003B0002BF8AE4605006946534620F007008546F7
:1003C00018B020B5FFF73EFFBDE820404FF0000613
:1003D0004FF000074FF000084FF0000BAC46ACE8C0
:1003E000C009ACE8C009ACE8C009ACE8C00921F01C
:1003F00007018D46704710B50446AFF300802046D4
:10040000BDE81040FFF709BF0048704720000020FA
:1004100001491820ABBEFEE726000200704700002D
:10042000FFE7FEE780B540F28C00C2F2000000F06A
:1004300015FB80BD80B540F2EC00C2F2000000F078
:100440000DFB80BD82B001900198007810384AF60B
:10045000AB21CAF6AA21A0FB011000090090009967
:1004600044F6FE10C0F60000405C0199C865009893
:10047000042807D3FFE701990868042262F3090002
:10048000886506E00199086840F2FF32904388656C
:10049000FFE70198806D02B07047000086B00590BC
:1004A00000208DF813000598806A039005988069F4
:1004B00010BBFFE70398029003281BD80299DFE8DE
:1004C00001F0020D0218059890F82F00C00720B126
:1004D000FFE701208DF81300FFE70CE00598C06AE4
:1004E000B0F1C07F04D1FFE701208DF81300FFE7D2
:1004F00001E000E0FFE745E005988069B0F5005FA6
:1005000025D1FFE70398019003281ED80199DFE861
:1005100001F00206021101208DF8130016E0059883
:1005200090F82F00C00720B1FFE701208DF81300DD
:10053000FFE70BE00598C06AB0F1C07F04D1FFE788
:1005400001208DF81300FFE700E0FFE719E00398B2
:100550000090032804D3FFE70098032804D00EE09E
:1005600001208DF813000BE0059890F82F00C007CC
:1005700020B1FFE701208DF81300FFE700E0FFE75F
:10058000FFE7FFE79DF8130006B0704782B0ADF8B3
:100590000600ADF80410ADF80220BDF80600BDF865
:1005A00004100843BDF802106FF3DF210843ADF8D3
:1005B0000000BDF8000002B07047000080B582B0B6
:1005C0000190019948680989012200F06BFE0A2018
:1005D00004F0AEF9FFE70198002100F059F840055A
:1005E000002801D5FFE7F6E7012004F0A1F902B0E9
:1005F00080BD000080B584B0039002910298407ADB
:10060000C007002841D0FFE700200090ADF80600A9
:100610000398BDF8061000F03BF8ADF80400BDF8F3
:100620000400029908804FF40060ADF806000398BA
:10063000BDF8061000F02CF8ADF80400BDF8040079
:10064000029948804FF48050ADF806000398BDF839
:10065000061000F01DF8ADF80400BDF80400029982
:1006600088804FF4C050ADF806000398BDF806101E
:1006700000F00EF801460098ADF80410BDF8041023
:10068000029AD18002994872FFE704B080BD000051
:1006900080B588B00790ADF81A1000220192ADF82D
:1006A00018200799C868098A00F0FCFD0120039012
:1006B00004F03EF9019AADF81620BDF81A104FF477
:1006C0000040FFF763FF039AADF814004BF6EF60AC
:1006D000ADF812000798006805A94FF47A730293E9
:1006E00001F096FE039A0799C868098A00F0DAFDBE
:1006F000039804F01DF9019A0799C868098A00F067
:10070000D1FD039804F014F90299039B079800683F
:100710006A4611600DF116010DF1120201F0BAFFE7
:10072000039804F005F9039A0799C868098A00F04C
:10073000B9FD039804F0FCF8BDF812006FF3DF2058
:1007400008B080BD80B586B0059004910499002062
:1007500001900872049948720A20029004F0E8F8A7
:100760000198ADF80E000598BDF80E10FFF790FF48
:1007700001460298ADF80C10BDF80C10049A1180D7
:1007800004F0D6F84FF40060ADF80E000598BDF8FF
:100790000E10FFF77DFF01460298ADF80C10BDF872
:1007A0000C10049A518004F0C3F84FF48050ADF857
:1007B0000E000598BDF80E10FFF76AFF014602987B
:1007C000ADF80C10BDF80C10049A918004F0B0F84C
:1007D0004FF4C050ADF80E000598BDF80E10FFF7AD
:1007E00057FF01460298ADF80C10BDF80C10049AA2
:1007F000D18004F09DF806B080BD000080B584B0C3
:10080000039002910298007AC00748B3FFE74FF4C3
:100810008050ADF8060002988088ADF80400039877
:10082000BDF80610BDF8042000F01CF80A20009066
:1008300004F07EF84FF4C050ADF806000298C0886E
:10084000ADF804000398BDF80610BDF8042000F0D0
:1008500009F8009804F06CF8029900200872FFE78C
:1008600004B080BD80B586B00590ADF81210ADF82B
:1008700010200599C868098A0022019200F012FD33
:100880000120029004F054F80198BDF81210BDF850
:100890001020FFF77BFE029AADF80E000598006865
:1008A0000DF10E014FF47A7301F0B2FD029804F0DD
:1008B0003FF8029A0599C868098A00F0F3FC02988B
:1008C00004F036F806B080BD7047000080B584B0F3
:1008D00040F20000C2F200000290FFF76FFE0298A3
:1008E00040F28001C2F200010391FFF72BFF029852
:1008F00003998A8842F4AA628A80CA8842F0040274
:10090000CA80012201920A72FFF778FF019A0298C9
:1009100003994A72FFF76EFE04B080BD81B0EFF319
:10092000108072B60090FFE7FEE7000080B584B04B
:1009300002900298806D019000F0CCFC009002982B
:1009400090F8350002280DD0FFE702998020486515
:10095000FFE70299002081F83400FFE701208DF8BD
:100960000F0055E002980168086820F01600086042
:1009700002980168486920F0800048610298006C84
:1009800020B9FFE70298806C38B1FFE70298016850
:10099000086820F008000860FFE70298016808680E
:1009A00020F001000860FFE7029800680068C007B7
:1009B000C8B1FFE700F08EFC0099401A062811D359
:1009C000FFE70299202048650299032081F835004D
:1009D000FFE70299002081F83400FFE703208DF83B
:1009E0000F0015E0E0E70298C16D3F2088400199B3
:1009F00088600299012081F83500FFE70299002004
:100A000081F83400FFE7FFE700208DF80F00FFE7D3
:100A10009DF80F0004B080BD82B00090009890F85F
:100A20003500022807D0FFE70099802048650120A3
:100A30008DF807000EE00099052081F83500009838
:100A40000168086820F001000860FFE700208DF8C9
:100A50000700FFE79DF8070002B0704780B586B039
:100A600005900020039040F21400C2F200000068DC
:100A700048F2B511C1F64E31A0FB0110800A029078
:100A80000598806D0190019800680490049805997C
:100A9000C96DC840000700281AD5FFE7059800680F
:100AA00000684007002812D5FFE70598016808682C
:100AB00020F0040008600598C16D08208840019965
:100AC00088600599486D40F001004865FFE7FFE741
:100AD00004980599C96DC840C007A0B1FFE7059803
:100AE00000684069000600280CD5FFE70598C16D35
:100AF00001208840019988600599486D40F0020006
:100B00004865FFE7FFE704980599C96DC8404007AD
:100B1000002814D5FFE705980068006880070028C2
:100B20000CD5FFE70598C16D0420884001998860C5
:100B30000599486D40F004004865FFE7FFE7049819
:100B40000599C96DC840C006002847D5FFE705983C
:100B500000680068000700283FD5FFE70598C16DD1
:100B6000102088400199886005980068006840035B
:100B700000281AD5FFE705980068006800030028E0
:100B800009D4FFE70598006C20B1FFE70598016CD8
:100B90008847FFE708E00598806C20B1FFE70598DB
:100BA000816C8847FFE7FFE716E00598006800685A
:100BB000C005002807D4FFE705980168086820F001
:100BC00008000860FFE70598006C20B1FFE7059872
:100BD000016C8847FFE7FFE7FFE7FFE70498059907
:100BE000C96DC8408006002840F18D80FFE7059858
:100BF00000680068C006002840F18480FFE705987F
:100C0000C16D2020884001998860059890F83500D2
:100C1000052834D1FFE705980168086820F0160020
:100C2000086005980168486920F0800048610598CF
:100C3000006C20B9FFE70598806C38B1FFE7059894
:100C40000168086820F008000860FFE70598C16D9A
:100C50003F208840019988600599012081F835007E
:100C6000FFE70599002081F83400FFE70598006D43
:100C700020B1FFE70598016D8847FFE77BE0059805
:100C800000680068400300281AD5FFE7059800684F
:100C900000680003002809D4FFE70598406C20B1E4
:100CA000FFE70598416C8847FFE708E00598C06BAF
:100CB00020B1FFE70598C16B8847FFE7FFE720E019
:100CC000059800680068C005002811D4FFE7059862
:100CD0000168086820F0100008600599012081F87B
:100CE0003500FFE70599002081F83400FFE7FFE7B2
:100CF0000598C06B20B1FFE70598C16B8847FFE7F7
:100D0000FFE7FFE7FFE70598406DA0B3FFE7059811
:100D1000406DC00730B3FFE70599052081F8350025
:100D200005980168086820F001000860FFE7039853
:100D3000013003900299884201D9FFE707E0FFE7FD
:100D4000059800680068C0070028F0D1FFE7059902
:100D5000012081F83500FFE70599002081F8340073
:100D6000FFE7FFE70598C06C20B1FFE70598C16C6D
:100D70008847FFE7FFE706B080BD000080B586B07A
:100D800004900020039000F0A5FA0290049820B986
:100D9000FFE701208DF81700A3E00498406A08B12E
:100DA000FFE7FFE70499022081F83500FFE7049987
:100DB000002081F83400FFE704980168086820F0FB
:100DC00001000860FFE7049800680068C00790B160
:100DD000FFE700F07FFA0299401A06280AD3FFE7DE
:100DE0000499202048650499032081F835008DF886
:100DF000170076E0E7E7049800680068039003981E
:100E000048F23F01CFF2100108400390049900918D
:100E10004868D1F808C0CB680A6940EA0C0018435A
:100E200010434A6910438A691043CA691043096A2A
:100E300001430398084303900498406A042808D1AA
:100E4000FFE70499C86A096B0143039808430390BC
:100E5000FFE70398049909680860049800684069EE
:100E60000390039820F0070003900498416A0398C8
:100E7000084303900498406A04281AD1FFE70498B5
:100E8000816A0398084303900498C06A80B1FFE721
:100E90000498FFF703FB50B1FFE704994020486531
:100EA0000499012081F835008DF8170019E0FFE75B
:100EB000FFE703980499096848610498FFF7C2FAAC
:100EC00001900498C16D3F20884001998860049981
:100ED00000204865049A012182F835108DF817002A
:100EE000FFE79DF8170006B080BD00008EB00D90A2
:100EF0000C9100200A90099008900B90FFE70B9846
:100F00000F2800F2CC81FFE70B99012088400A905E
:100F10000C9800680A990840099009980A99884233
:100F200040F0B881FFE70C98406800F0030001280A
:100F300007D0FFE70C98406800F0030002282FD18B
:100F4000FFE70D98806808900B984100032000FA95
:100F500001F10898884308900C98C0680B994900E3
:100F600000FA01F108980843089008980D998860E4
:100F70000D98406808900B99012000FA01F108983B
:100F8000884308900C984068C0F300100B9900FA51
:100F900001F108980843089008980D994860FFE708
:100FA0000C98406800F00300032818D0FFE70D9864
:100FB000C06808900B984100032000FA01F10898DE
:100FC000884308900C9880680B99490000FA01F159
:100FD00008980843089008980D99C860FFE70C9896
:100FE000406800F00300022826D1FFE70D980B9916
:100FF0006FF0030202EA51010844006A08900B985E
:1010000000F0070081000F2000FA01F108988843E2
:1010100008900C9800690B9901F00701890000FA0B
:1010200001F108980843089008980D990B9B02EA73
:10103000530211440862FFE70D98006808900B986E
:101040004100032000FA01F10898884308900C98A9
:10105000406800F003000B99490000FA01F108987C
:101060000843089008980D9908600C9880798007CB
:10107000002800F00E81FFE7FFE70020079043F60D
:101080004400C4F20200016841F48041016000683C
:1010900000F4804007900798FFE70B9820F00300CA
:1010A00043F60801C4F20101405808900B9800F083
:1010B000030081000F2000FA01F10898884308908E
:1010C0000D980021C4F20201884203D1FFE70020FD
:1010D00006905EE00D9840F20041C4F202018842A1
:1010E00003D1FFE70120059050E00D9840F6000184
:1010F000C4F20201884203D1FFE70220049042E0DB
:101100000D9840F60041C4F20201884203D1FFE786
:101110000320039034E00D9841F20001C4F2020173
:10112000884203D1FFE70420029026E00D9841F2A7
:101130000041C4F20201884203D1FFE7052001907B
:1011400018E00D9841F60001C4F20201884203D173
:10115000FFE7062000900AE00D9941F60042C4F234
:1011600002020820914208BF07200090FFE7009884
:101170000190FFE701980290FFE702980390FFE7D4
:1011800003980490FFE704980590FFE70598069000
:10119000FFE70698C0B20B9901F00301890000FA3D
:1011A00001F108980843089008980B9921F0030171
:1011B00043F60802C4F20102885043F60840C4F224
:1011C00001000068089009990898884308900C98D5
:1011D0008079C006002805D5FFE7099908980843DB
:1011E0000890FFE7089843F60841C4F2010108603F
:1011F00043F60C40C4F20100006808900999089871
:10120000884308900C9880798006002805D5FFE770
:101210000999089808430890FFE7089843F60C419D
:10122000C4F20101086043F60440C4F20100006802
:10123000089009990898884308900C98807980074D
:10124000002805D5FFE70999089808430890FFE7AB
:10125000089843F60441C4F20101086043F60040D7
:10126000C4F2010000680890099908988843089022
:101270000C988079C00728B1FFE7099908980843BE
:101280000890FFE7089843F60041C4F201010860A6
:10129000FFE7FFE7FFE70B9801300B902FE60EB05A
:1012A0007047000082B00190ADF802108DF8012067
:1012B0009DF8010028B1FFE7BDF80200019988619F
:1012C00005E0BDF80200000401998861FFE702B063
:1012D0007047000040F27820C2F2000000687047BA
:1012E00040F21800C2F20000027840F27821C2F207
:1012F00000010868104408607047000080B543F69C
:101300000041C4F20201086840F4007008600868F7
:1013100040F480600860086840F480700860032032
:1013200000F0CAF80F2000F005F800F07BF800206C
:1013300080BD000080B58CB00B900020049003901D
:10134000FFE70020009043F64000C4F2020001686D
:1013500041F480710160006800F480700090009892
:10136000FFE706A802A900F0E1F9099804900498A3
:1013700020B9FFE700F00AFA059004E000F006FA51
:1013800040000590FFE705984DF68361C4F21B31DC
:10139000A0FB01014FF0FF3000EB9140039040F2C1
:1013A000EC10C2F2000042F20001C4F20001016040
:1013B00040F2E731C1600399416000210161816021
:1013C000816101F00FFC8DF807009DF8070028BB34
:1013D000FFE740F2EC10C2F2000001F055FC8DF87E
:1013E00007009DF80700C0B9FFE72D2000F040F886
:1013F0000B980F280CD8FFE70B992D20002200F046
:1014000041F80B9840F21C01C2F20001086003E0B1
:1014100001208DF80700FFE7FFE7FFE79DF80700D1
:101420000CB080BD82B0FFE70020019043F644007D
:10143000C4F20200016841F480410160006800F4D8
:10144000804001900198FFE7FFE70020009043F6FD
:101450004000C4F20200016841F080510160006860
:1014600000F0805000900098FFE702B07047000045
:1014700080B582B08DF807009DF9070003F0F8F9F8
:1014800002B080BD80B586B08DF81700049103923C
:101490000020029003F004FA02909DF917000190D9
:1014A00002980499039A02F09BFB0146019803F00D
:1014B000FFF906B080BD000080B582B001900198B0
:1014C00003F018FA02B080BD80B584B0029001919B
:1014D000029820B9FFE701208DF80F0021E1019863
:1014E00043F60041C4F20201096801F00701884295
:1014F00012D9FFE7019943F60040C4F202000170DF
:10150000006800F007000199884204D0FFE701203D
:101510008DF80F0005E1FFE70298007880070028AA
:101520002AD5FFE7029800784007002809D5FFE791
:1015300043F60801C4F20201086840F4E050086074
:10154000FFE7029800780007002809D5FFE743F677
:101550000801C4F20201086840F460400860FFE737
:1015600043F60801C4F20201086820F0F000029A74
:10157000926810430860FFE702980078C0070028CF
:101580006ED0FFE702984068012811D1FFE743F6CB
:101590000000C4F20200006800F400310020B0EB4B
:1015A000514F04D1FFE701208DF80F00B9E02CE086
:1015B00002984068022805D0FFE702984068032897
:1015C00011D1FFE743F60000C4F20200006800F00A
:1015D00000710020B0EB516F04D1FFE701208DF8BE
:1015E0000F009EE010E043F60000C4F20200006825
:1015F00000F002010020B0EB510F04D1FFE7012001
:101600008DF80F008DE0FFE7FFE743F60801C4F215
:101610000201086820F00300029A52681043086033
:10162000FFF758FE0090FFE743F60800C4F20200FF
:10163000006800F00C0002994968B0EB810F0ED0F1
:10164000FFE7FFF747FE0099401A41F289318842CF
:1016500004D3FFE703208DF80F0062E0E4E7FFE723
:10166000019843F60041C4F20201096801F0070144
:10167000884212D2FFE7019943F60040C4F202000B
:101680000170006800F007000199884204D0FFE76C
:1016900001208DF80F0044E0FFE702980078400732
:1016A00000280CD5FFE743F60801C4F202010868E0
:1016B00020F4E050029AD26810430860FFE70298D5
:1016C0000078000700280DD5FFE743F60801C4F2B3
:1016D0000201086820F46040029A126940EAC200E0
:1016E0000860FFE700F076F843F60801C4F2020153
:1016F0000968C9B20A0944F6E611C0F60001895C1E
:10170000C84040F21401C2F20001086040F21C001F
:10171000C2F200000068FFF70DFE00208DF80F00F8
:10172000FFE79DF80F0004B080BD000082B001907B
:10173000009101990F20086043F60800C4F20200EE
:10174000016801F00301019A5160016801F0F001A4
:10175000019A9160016801F4E051019AD16000683A
:1017600000F46040C0080199086143F60040C4F2EB
:101770000200006800F007000099086002B070479E
:1017800040F21400C2F200000068704780B5FFF715
:10179000F7FF43F60801C4F202010968C1F382228F
:1017A00044F6F611C0F60001895CC84080BD000017
:1017B00080B5FFF7E5FF43F60801C4F202010968AE
:1017C00089B24A0B44F6F611C0F60001895CC840A4
:1017D00080BD000080B586B0002005900490039085
:1017E000029043F60800C4F20200006800F00C000A
:1017F0000146019140B1FFE7019804280AD0FFE7B4
:10180000019808280CD04FE042F20040C0F2F400EA
:1018100002904FE041F20020C0F27A00029049E0CD
:1018200043F60400C4F20200016801F03F01059193
:1018300000684002002813D5FFE743F60400C4F215
:1018400002000068C0F3881041F20021C0F27A0162
:10185000A0FB0101059A0023FEF706FD049012E0AB
:1018600043F60400C4F202000068C0F3881042F29C
:101870000041C0F2F401A0FB0101059A0023FEF72C
:10188000F3FC0490FFE743F60400C4F20200006892
:1018900000F44031022000EBD1300390049803990A
:1018A000B0FBF1F0029005E042F20040C0F2F4001B
:1018B0000290FFE7029806B080BD000080B586B0B8
:1018C0000490049820B9FFE701208DF8170050E339
:1018D00004980078C007002800F0A580FFE743F6D1
:1018E0000800C4F20200006800F00C00042813D0C5
:1018F000FFE743F60800C4F20200006800F00C00A5
:1019000008281ED1FFE743F60400C4F20200006875
:101910004002002815D5FFE743F60000C4F202009C
:10192000006800F400310020B0EB514F08D0FFE711
:101930000498406820B9FFE701208DF8170018E3EC
:1019400070E0FFE704984068B0F5803F09D1FFE7F9
:1019500043F60001C4F20201086840F480300860D8
:1019600020E004984068B0F5A02F0DD1FFE743F6C2
:101970000001C4F20201086840F480200860086891
:1019800040F4803008600CE043F60001C4F202012C
:10199000086820F480300860086820F4802008601F
:1019A000FFE7FFE7FFE704984068E8B1FFE7FFF7CC
:1019B00091FC0390FFE743F60000C4F202000068C8
:1019C00000F400310020B0EB514F0CD1FFE7FFF7DE
:1019D00081FC0399401A652804D3FFE703208DF8A2
:1019E0001700C6E2E7E71CE0FFF774FC0390FFE78F
:1019F00043F60000C4F20200006800F40031002049
:101A0000B0EB514F0CD0FFE7FFF764FC0399401A8D
:101A1000652804D3FFE703208DF81700A9E2E7E764
:101A2000FFE7FFE7FFE7049800788007002840F110
:101A30009680FFE743F60800C4F20200006810F049
:101A40000C0F13D0FFE743F60800C4F20200006851
:101A500000F00C0008282CD1FFE743F60400C4F284
:101A6000020000684002002823D4FFE743F600008C
:101A7000C4F20200006800F002010020B0EB510F38
:101A800009D0FFE70498C068012804D0FFE70120CF
:101A90008DF817006DE243F60001C4F202010868F8
:101AA00020F0F800049A126940EAC2000860FFE7DB
:101AB00054E00498C06870B3FFE70021C4F24721E6
:101AC00001200860FFF706FC0390FFE743F60000E3
:101AD000C4F20200006800F002010020B0EB510FD8
:101AE0000CD1FFE7FFF7F6FB0399401A032804D354
:101AF000FFE703208DF817003BE2E7E743F600011C
:101B0000C4F20201086820F0F800049A126940EA61
:101B1000C200086021E00021C4F2472100200860D3
:101B2000FFF7D8FB0390FFE743F60000C4F2020082
:101B3000006800F002010020B0EB510F0CD0FFE76D
:101B4000FFF7C8FB0399401A032804D3FFE70320DB
:101B50008DF817000DE2E7E7FFE7FFE7FFE70498DE
:101B60000078000700284BD5FFE70498406918B3B8
:101B7000FFE740F68061C4F2472101200860FFF7CB
:101B8000A9FB0390FFE743F67400C4F2020000686B
:101B900000F002010020B0EB510F0CD1FFE7FFF77E
:101BA00099FB0399401A032804D3FFE703208DF81B
:101BB0001700DEE1E7E722E040F68061C4F247214A
:101BC00000200860FFF786FB0390FFE743F67400F0
:101BD000C4F20200006800F002010020B0EB510FD7
:101BE0000CD0FFE7FFF776FB0399401A032804D3D4
:101BF000FFE703208DF81700BBE1E7E7FFE7FFE70A
:101C0000049800784007002840F1CE80FFE70020CC
:101C10008DF8070043F64000C4F202000068C000DF
:101C2000002815D4FFE7FFE70020009043F64000AE
:101C3000C4F20200016841F080510160006800F0C8
:101C4000805000900098FFE701208DF80700FFE723
:101C500047F20000C4F200000068C005002822D44A
:101C6000FFE747F20001C4F20001086840F4807009
:101C70000860FFF72FFB0390FFE747F20000C4F274
:101C800000000068C00500280CD4FFE7FFF722FB26
:101C90000399401A032804D3FFE703208DF81700A7
:101CA00067E1EAE7FFE7FFE704988068012809D1C8
:101CB000FFE743F67001C4F20201086840F001003A
:101CC00008601FE00498806805280DD1FFE743F6FF
:101CD0007001C4F20201086840F00400086008685E
:101CE00040F0010008600CE043F67001C4F202010C
:101CF000086820F001000860086820F0040008600F
:101D0000FFE7FFE7FFE704988068F8B1FFE7FFF718
:101D1000E1FA0390FFE743F67000C4F202000068A6
:101D200000F002010020B0EB510F0ED1FFE7FFF7EA
:101D3000D1FA0399401A41F28931884204D3FFE76E
:101D400003208DF8170014E1E5E71EE0FFF7C2FA63
:101D50000390FFE743F67000C4F20200006800F051
:101D600002010020B0EB510F0ED0FFE7FFF7B2FAEF
:101D70000399401A41F28931884204D3FFE70320D6
:101D80008DF81700F5E0E5E7FFE79DF8070001286B
:101D900009D1FFE743F64001C4F20201086820F0D0
:101DA00080500860FFE7FFE704988069002800F092
:101DB000DC80FFE743F60800C4F20200006800F090
:101DC0000C00082800F08580FFE70498806902284D
:101DD0005CD1FFE76021C4F2472100200860FFF7D3
:101DE00079FA0390FFE743F60000C4F202000068AE
:101DF00000F000710020B0EB516F0CD0FFE7FFF74F
:101E000069FA0399401A032804D3FFE703208DF8E9
:101E10001700AEE0E7E70499C869D1F820C04B6A23
:101E20008A6A40EA0C0040EA8310D2034FF6FF733F
:101E30009A43A2F580321043C96A40EA016043F632
:101E40000401C4F2020108606021C4F247210120AC
:101E50000860FFF73FFA0390FFE743F60000C4F283
:101E60000200006800F000710020B0EB516F0CD14F
:101E7000FFE7FFF72FFA0399401A032804D3FFE77F
:101E800003208DF8170074E0E7E721E06021C4F239
:101E9000472100200860FFF71DFA0390FFE743F693
:101EA0000000C4F20200006800F000710020B0EBF6
:101EB000516F0CD0FFE7FFF70DFA0399401A032882
:101EC00004D3FFE703208DF8170052E0E7E7FFE7B0
:101ED0004AE004988069012804D1FFE701208DF8C9
:101EE000170046E043F60400C4F2020000680290C6
:101EF00004988069012831D0FFE7029800F480003F
:101F00000499C969884229D1FFE7029800F03F008F
:101F10000499096A884221D1FFE7029847F6C07107
:101F200008400499496AB0EB811F17D1FFE7029876
:101F300000F440300499896AC9034FF6FF72914357
:101F4000A1F58031884209D1FFE7029800F0706066
:101F50000499C96AB0EB016F04D0FFE701208DF846
:101F6000170006E0FFE7FFE7FFE700208DF8170006
:101F7000FFE79DF8170006B080BD000081B000901B
:101F800001B0704780B588B0079007980068406836
:101F9000069007980068806805909DF8140000F08E
:101FA00040010020B0EB911F11D1FFE70598C00759
:101FB00068B1FFE79DF8180000F040010020B0EB89
:101FC000911F04D0FFE70798016C8847F0E09DF867
:101FD000140000F002010020B0EB510F0BD0FFE71E
:101FE0009DF818100020B0EBD11F04D0FFE7079830
:101FF000416C8847DCE09DF8140000F020010020CF
:10200000B0EB511F10D1FFE79DF8140000F0400124
:102010000020B0EB911F07D1FFE79DF81500C00726
:10202000002800F0C580FFE79DF8180000F02001AF
:102030000020B0EB511F00F0BB80FFE79DF81400BB
:1020400000F040010020B0EB911F28D0FFE7079877
:1020500090F85100032813D0FFE70799486D40F02E
:1020600004004865FFE70020049007980068C068F6
:10207000049007980068806804900498FFE70DE0DA
:10208000FFE70020039007980068C0680390079856
:102090000068806803900398FFE789E0FFE79DF8F8
:1020A000140000F020010020B0EB511F15D0FFE715
:1020B0000799486D40F001004865FFE70020029055
:1020C000079800688068029007980168086820F007
:1020D000400008600298FFE7FFE79DF81500C00781
:1020E00078B1FFE70799486D40F008004865FFE7C1
:1020F0000020019007980068806801900198FFE730
:10210000FFE70798406D002851D0FFE70798016866
:10211000486820F0E00048600799012081F85100EC
:10212000069800F00200022805D0FFE79DF818008D
:10213000C007B8B3FFE707980168486820F00300BC
:1021400048600798C06CA0B1FFE70798C16C43F6E0
:102150006140C0F6000008650798C06CFEF75CFCA3
:1021600030B1FFE70799486D40F040004865FFE750
:10217000FFE70798806CA0B1FFE70798816C43F6F2
:102180006140C0F6000008650798806CFEF744FCCB
:1021900030B1FFE70799486D40F040004865FFE720
:1021A000FFE703E00798FFF7E9FEFFE7FFE7FFE738
:1021B00008B080BD80B584B00290029820B9FFE7D6
:1021C00001208DF80F0071E00298406A60B9FFE7C6
:1021D00002984068B0F5827F01D1FFE703E00299E1
:1021E0000020C861FFE705E002990020086102991C
:1021F0004861FFE7029900208862029890F8510038
:1022000040B9FFE70299002081F85000029800F0E1
:1022100051F8FFE70299022081F851000298016805
:10222000086820F040000860029A01921168506826
:10223000D2F808C0D36800F482700CF4044C6044F7
:1022400003F400631844136903F00203184453694C
:1022500003F001031844936903F400731844D3692D
:1022600003F038031844136A03F080031843926A9A
:1022700002F4005210430860029A508B00F00400F0
:102280001168526A02F01002104448600298016816
:10229000C86920F40060C861029900204865029A6C
:1022A000012182F851108DF80F00FFE79DF80F0013
:1022B00004B080BD80B58CB00B9000200A900990CE
:1022C0000890079006900B98006843F60041C4F20E
:1022D0000001884240F09A80FFE7FFE70020059068
:1022E00043F64000C4F20200016841F4004101607D
:1022F000006800F4004005900598FFE7FFE7002024
:10230000049043F63000C4F20200016841F0040179
:102310000160006800F0040004900498FFE74FF4A7
:10232000E0500690022007900120089003200990B9
:1023300006200A9040F60000C4F2020006A9FEF74B
:10234000D5FD40F28C00C2F20000039046F210016D
:10235000C4F202010160002141608160C1604FF45C
:10236000806202614FF4006242614FF40052826168
:10237000C1614FF4803202624162FEF7FFFC18B186
:10238000FFE7FEF7CBFAFFE7FFE70B9840F28C017F
:10239000C2F20001C1640B988863FFE740F2EC00D1
:1023A000C2F20000029046F28801C4F2020101600C
:1023B0000021416040228260C1604FF4806202616E
:1023C0004FF4006242614FF400528261C1614FF4E8
:1023D000803202624162FEF7D1FC18B1FFE7FEF7DE
:1023E0009DFAFFE7FFE70B9840F2EC01C2F2000113
:1023F00081640B988863FFE7332001900521002258
:10240000FFF740F80198FFF733F8FFE70CB080BD05
:1024100080B588B006900591ADF812200393002096
:102420008DF80700FFE7069890F85000012804D1C6
:10243000FFE702208DF81F0028E10699012081F8AE
:102440005000FFE7FFE7FEF745FF0290BDF81200DE
:10245000ADF80400069890F85100012804D0FFE779
:1024600002208DF8070002E1059820B1FFE7BDF8D2
:10247000120020B9FFE701208DF80700F7E0069968
:10248000032081F851000699002048650599069AB5
:102490001163BDF81210069A9186BDF81210069AC3
:1024A000D18606998863069988870699C887069910
:1024B00048640699086406988068B0F5004F0DD10D
:1024C000FFE706980168086820F040000860069859
:1024D0000168086840F480400860FFE706980068DB
:1024E000006800F04000402807D0FFE70698016828
:1024F000086840F040000860FFE70698C068B0F543
:10250000006F47D1FFE70698406828B1FFE7BDF8A4
:10251000040001280ED1FFE706980168006B0088CF
:10252000C8600699086B023008630699C88E0138A6
:10253000C886FFE7FFE70698C08E50B3FFE706980E
:1025400000688068800700280ED5FFE706980168BC
:10255000006B0088C8600699086B02300863069912
:10256000C88E0138C88613E0FEF7B4FE0299401AFF
:102570000399884204D3FFE70398013018B9FFE7B5
:10258000039820B9FFE703208DF807006FE0FFE70D
:10259000D1E746E00698406828B1FFE7BDF804009F
:1025A00001280ED1FFE706980168006B00780873D8
:1025B0000699086B013008630699C88E0138C886F1
:1025C000FFE7FFE70698C08E50B3FFE70698006864
:1025D0008068800700280ED5FFE706980168006B29
:1025E000007808730699086B013008630699C88E55
:1025F0000138C88613E0FEF76DFE0299401A039970
:10260000884204D3FFE70398013018B9FFE7039825
:1026100020B9FFE703208DF8070028E0FFE7D1E7A6
:10262000FFE706980399029A01F02AFB20B1FFE721
:10263000069920204865FFE70698806870B9FFE793
:10264000FFE70020009006980068C0680090069898
:102650000068806800900098FFE7FFE70698406DEB
:1026600020B1FFE701208DF80700FFE7FFE706999B
:10267000012081F85100FFE70699002081F8500001
:10268000FFE79DF807008DF81F00FFE79DF81F008A
:1026900008B080BD80B58EB0DDF840C00C900B91C5
:1026A0000A92ADF826300120059000208DF8130025
:1026B000FFE70C9890F85000012804D1FFE70220B2
:1026C0008DF8370095E10C99012081F85000FFE763
:1026D000FFE7FEF7FFFD06900C9890F851008DF88B
:1026E0001F000C9840680890BDF82600ADF8240043
:1026F0009DF81F00012812D0FFE70898B0F5827FEF
:1027000009D1FFE70C98806828B9FFE79DF81F0002
:10271000042804D0FFE702208DF813005AE10B983B
:1027200038B1FFE70A9820B1FFE7BDF8260020B9CD
:10273000FFE701208DF813004CE10C9890F8510050
:10274000042805D0FFE70C99052081F85100FFE728
:102750000C99002048650A990C9A9163BDF82610DF
:102760000C9AD187BDF826100C9A91870B990C9A78
:102770001163BDF826100C9AD186BDF826100C9A6C
:1027800091860C9908640C9948640C98006800685C
:1027900000F04000402807D0FFE70C980168086867
:1027A00040F040000860FFE70C98C068B0F5006F8B
:1027B00076D1FFE70C98406828B1FFE7BDF8240008
:1027C00001280ED1FFE70C980168006B0088C860F3
:1027D0000C99086B023008630C99C88E0138C886C2
:1027E000FFE7FFE70C98C18E0120029039B9FFE79F
:1027F0000C98C08F002818BF01200290FFE70298B4
:10280000C00700284BD0FFE70C980068806880075D
:10281000002818D5FFE70C98C08EA0B1FFE70598F7
:10282000012810D1FFE70C980168006B0088C86090
:102830000C99086B023008630C99C88E0138C88661
:1028400000200590FFE70C9800688068C007A8B1D9
:10285000FFE70C98C08F88B1FFE70C980068C0684C
:102860000C99896B08800C99886B023088630C99ED
:10287000C88F0138C88701200590FFE7FEF72AFDC1
:102880000699401A1099884208D3FFE71098013042
:1028900020B1FFE703208DF813009BE0A2E778E06A
:1028A0000C98406828B1FFE7BDF8240001280ED13C
:1028B000FFE70C980168006B007808730C99086BAF
:1028C000013008630C99C88E0138C886FFE7FFE71E
:1028D0000C98C18E0120019039B9FFE70C98C08F88
:1028E000002818BF01200190FFE70198C0070028C9
:1028F0004ED0FFE70C98006880688007002818D544
:10290000FFE70C98C08EA0B1FFE70598012810D111
:10291000FFE70C980168006B007808730C99086B4E
:10292000013008630C99C88E0138C88600200590D4
:10293000FFE70C9800688068C007A8B1FFE70C9813
:10294000C08F88B1FFE70C980068C0680C99896B4C
:1029500008700C99886B013088630C99C88F013816
:10296000C88701200590FFE7FEF7B4FC0699401ADE
:102970001099884204D3FFE71098013018B9FFE797
:10298000109820B9FFE703208DF8130022E09FE79D
:10299000FFE70C981099069A01F072F938B1FFE739
:1029A00001208DF813000C992020486512E00C9846
:1029B000806870B9FFE7FFE7002003900C9800687B
:1029C000C06803900C980068806803900398FFE744
:1029D000FFE7FFE70C99012081F85100FFE70C9910
:1029E000002081F85000FFE79DF813008DF83700B4
:1029F000FFE79DF837000EB080BD000081B0009069
:102A000001B0704781B0009001B0704784B002906F
:102A1000019100200090FFE7029890F83C00012807
:102A200004D1FFE702208DF80F0044E00299012055
:102A300081F83C00FFE7FFE7009820F0FF000199D4
:102A4000C96808430090009820F440700199896893
:102A500008430090009820F4806001994968084379
:102A60000090009820F400600199096808430090E4
:102A7000009820F48050019909690843009000985B
:102A800020F400500199496908430090009820F40F
:102A900080400199C969084300900098029909682B
:102AA0004864FFE70299002081F83C00FFE700201E
:102AB0008DF80F00FFE79DF80F0004B0704700008D
:102AC00085B003900291FFE7039890F83C0001283D
:102AD00004D1FFE702208DF813007EE00399012066
:102AE00081F83C00FFE7FFE70399022081F83D00F1
:102AF000039800684068019003980068806800901F
:102B0000019820F070000190029801680198084334
:102B100001900198039909684860039800680021B2
:102B2000C4F2010188423CD0FFE703980068B0F18D
:102B3000804F36D0FFE70398006840F20041C4F2AE
:102B4000000188422DD0FFE70398006840F600019D
:102B5000C4F20001884224D0FFE70398006840F6E1
:102B60000041C4F2000188421BD0FFE703980068CF
:102B700040F20041C4F20101884212D0FFE70398FD
:102B8000006844F20001C4F20101884209D0FFE765
:102B90000398006841F60001C4F2000188420ED19A
:102BA000FFE7009820F080000090029841680098AC
:102BB000084300900098039909688860FFE703992B
:102BC000012081F83D00FFE70399002081F83C00D7
:102BD000FFE700208DF81300FFE79DF8130005B014
:102BE0007047000080B582B00090009820B9FFE7E0
:102BF00001208DF807003FE0009890F83D0040B9B3
:102C0000FFE70099002081F83C00009800F038F8B8
:102C1000FFE70099022081F83D00009951F8040B6C
:102C200001F08AF90099012081F84600FFE7009938
:102C3000012081F83E00009981F83F00009981F859
:102C40004000009981F84100FFE7FFE7009901206B
:102C500081F84200009981F84300009981F844000E
:102C6000009981F84500FFE70099012081F83D00B7
:102C700000208DF80700FFE79DF8070002B080BD37
:102C800081B0009001B0704783B00190019890F836
:102C90003D00012804D0FFE701208DF80B006AE019
:102CA0000199022081F83D0001980168C86840F050
:102CB0000100C860019800680021C4F20101884247
:102CC0003CD0FFE701980068B0F1804F36D0FFE7B5
:102CD0000198006840F20041C4F2000188422DD002
:102CE000FFE70198006840F60001C4F20001884245
:102CF00024D0FFE70198006840F60041C4F20001CB
:102D000088421BD0FFE70198006840F20041C4F2FE
:102D10000101884212D0FFE70198006844F20001E7
:102D2000C4F20101884209D0FFE70198006841F62A
:102D30000001C4F20001884212D1FFE70198006847
:102D4000806800F0070000900098062807D0FFE791
:102D500001980168086840F001000860FFE706E09C
:102D600001980168086840F001000860FFE7002052
:102D70008DF80B00FFE79DF80B0003B070470000D3
:102D800081B0009001B0704780B582B00190019889
:102D90000068006900F002010020B0EB510F28D05C
:102DA000FFE701980068C06800F002010020B0EB66
:102DB000510F1DD0FFE7019801686FF00200086114
:102DC000019901200877019800688069800720B187
:102DD000FFE70198FFF7D4FF06E0019800F06EF9D5
:102DE000019800F07DFAFFE7019900200877FFE7DE
:102DF000FFE701980068006900F004010020B0EBD3
:102E0000910F29D0FFE701980068C06800F0040125
:102E10000020B0EB910F1ED0FFE7019801686FF022
:102E20000400086101990220087701980068806910
:102E300010F4407F04D0FFE70198FFF7A1FF06E000
:102E4000019800F03BF9019800F04AFAFFE7019978
:102E500000200877FFE7FFE701980068006900F0AD
:102E600008010020B0EBD10F28D0FFE701980068DF
:102E7000C06800F008010020B0EBD10F1DD0FFE7C3
:102E8000019801686FF00800086101990420087733
:102E900001980068C069800720B1FFE70198FFF73B
:102EA0006FFF06E0019800F009F9019800F018FAA8
:102EB000FFE7019900200877FFE7FFE70198006826
:102EC000006900F010010020B0EB111F29D0FFE7CE
:102ED00001980068C06800F010010020B0EB111FDD
:102EE0001ED0FFE7019801686FF01000086101999A
:102EF0000820087701980068C06910F4407F04D06A
:102F0000FFE70198FFF73CFF06E0019800F0D6F8D4
:102F1000019800F0E5F9FFE7019900200877FFE745
:102F2000FFE7019800680069C00780B1FFE70198DA
:102F30000068C068C00748B1FFE7019801686FF0FA
:102F400001000861019800F0CFF9FFE7FFE7019861
:102F500000680069C1B20020B0EBD11F13D0FFE7B9
:102F600001980068C068C1B20020B0EBD11F09D041
:102F7000FFE7019801686FF0800008610198FFF792
:102F80003DFDFFE7FFE701980068006900F04001A0
:102F90000020B0EB911F14D0FFE701980068C068D3
:102FA00000F040010020B0EB911F09D0FFE701982D
:102FB00001686FF040000861019800F0A7F9FFE791
:102FC000FFE701980068006900F020010020B0EBE5
:102FD000511F14D0FFE701980068C06800F020017D
:102FE0000020B0EB511F09D0FFE7019801686FF096
:102FF000200008610198FFF705FDFFE7FFE702B039
:1030000080BD000080B58CB00B9000200A90099024
:103010000890079006900B9800680021C4F2010107
:10302000884249D1FFE7FFE70020059043F63000D2
:10303000C4F20200016841F002010160006800F082
:10304000020005900598FFE7FFE70020049043F693
:103050003000C4F20200016841F001010160006823
:1030600000F0010004900498FFE74FF460400690E0
:103070000220009007900020019008900990012004
:1030800002900A9040F20040C4F2020006A90391A7
:10309000FDF72CFF009B019A029803994FF4E06C16
:1030A000CDF818C00793089209920A900020C4F244
:1030B0000200FDF71BFFFFE70CB080BD81B0009060
:1030C00001B0704780B586B0049003910292002051
:1030D0008DF80700FFE7049890F83C00012804D120
:1030E000FFE702208DF8170089E00499012081F89C
:1030F0003C00FFE7FFE7029800900C2800F2708088
:103100000099DFE801F0076D6D6D206D6D6D3A6D12
:103110006D6D530004980068039900F0DBFF04987C
:103120000168886940F0080088610498016888692E
:1031300020F0040088610398026904980168886996
:103140001043886150E004980068039901F038F852
:1031500004980168886940F40060886104980168F7
:10316000886920F480608861039802690498016886
:10317000886940EA0220886136E004980068039973
:1031800001F098F804980168C86940F00800C86127
:1031900004980168C86920F00400C86103980269B6
:1031A00004980168C8691043C8611DE0049800686C
:1031B000039901F0F9F804980168C86940F40060C7
:1031C000C86104980168C86920F48060C8610398E8
:1031D000026904980168C86940EA0220C86103E0F6
:1031E00001208DF80700FFE7FFE70499002081F830
:1031F0003C00FFE79DF807008DF81700FFE79DF8FA
:10320000170006B080BD000080B582B00090009825
:1032100020B9FFE701208DF807003FE0009890F803
:103220003D0040B9FFE70099002081F83C0000987C
:1032300000F038F8FFE70099022081F83D0000997E
:1032400051F8040B00F078FE0099012081F8460047
:10325000FFE70099012081F83E00009981F83F00C6
:10326000009981F84000009981F84100FFE7FFE7ED
:103270000099012081F84200009981F843000099EB
:1032800081F84400009981F84500FFE7009901208A
:1032900081F83D0000208DF80700FFE79DF807004A
:1032A00002B080BD82B00190019800680021C4F294
:1032B0000101884212D1FFE7FFE70020009043F6AA
:1032C0004400C4F20200016841F00101016000689D
:1032D00000F0010000900098FFE7FFE702B07047A0
:1032E00081B0009001B0704780B582B00190019824
:1032F000006842F20001C4F20001884203D1FFE7F6
:10330000FDF7EEFFFFE702B080BD000081B0009046
:1033100001B0704782B00190ADF8021002B0704762
:1033200081B0009001B0704780B592B011901198B3
:1033300000680068109011980068C0680F9011989C
:10334000006840690E9000200D900C90109800F0DD
:103350000F000D900D9888B9FFE79DF8400080069A
:1033600000280AD5FFE79DF83C008006002804D518
:10337000FFE7119801F0E0F8E3E1FFE70D9800287E
:1033800000F0C280FFE79DF83800C00738B9FFE7BA
:10339000BDF83C0010F4907F00F0B680FFE79DF888
:1033A0004000C00758B1FFE79DF83D00C00730B1AD
:1033B000FFE71199086C40F001000864FFE79DF8F1
:1033C0004000400700280BD5FFE79DF83800C007F4
:1033D00030B1FFE71199086C40F002000864FFE784
:1033E0009DF84000800700280BD5FFE79DF83800C6
:1033F000C00730B1FFE71199086C40F00400086481
:10340000FFE79DF840000007002811D5FFE79DF871
:103410003C008006002805D4FFE79DF83800C0076F
:1034200030B1FFE71199086C40F008000864FFE72D
:103430001198006C002866D0FFE79DF840008006D8
:1034400000280AD5FFE79DF83C008006002804D537
:10345000FFE7119801F070F8FFE7119800684069E4
:10346000C0F380100C901198006C0007002804D461
:10347000FFE70C9800283ED0FFE7119800F0FEFF10
:10348000119800684069400600282FD5FFE7FFE744
:10349000FFE71198006850E8050F20F040000B90FE
:1034A000FFE70B991198026842E805100028F0D157
:1034B000FFE7FFE71198806B98B1FFE71198816BE8
:1034C00044F25D40C0F6000008651198806BFDF77E
:1034D000A3FA28B1FFE71198806B016D8847FFE7D9
:1034E00003E01198FFF71CFFFFE703E01198FFF7D7
:1034F00017FFFFE706E01198FFF712FF1199002070
:103500000864FFE7FFE71CE11198006B012840F019
:10351000F880FFE79DF84000C006002840F1F180E8
:10352000FFE79DF83C00C006002840F1EA80FFE775
:10353000FFE700200A901198006800680A9011982F
:10354000006840680A900A98FFE71198006840698F
:10355000400600287ED5FFE71198806B0068406820
:10356000ADF82600BDF82600002872D0FFE7BDF8B0
:1035700026001199898D88426BDAFFE7BDF8260095
:103580001199C8851198806BC069B0F5807F58D0BB
:10359000FFE7FFE7FFE71198006850E8030F20F40A
:1035A00080700890FFE708991198026842E80310BC
:1035B0000028F0D1FFE7FFE7FFE7FFE71198006879
:1035C00050E8050F20F001000790FFE707991198D8
:1035D000026842E805100028F0D1FFE7FFE7FFE7A7
:1035E000FFE71198006850E8050F20F040000690B2
:1035F000FFE706991198026842E805100028F0D10B
:10360000FFE7FFE71199202081F83E001199002083
:103610000863FFE7FFE71198006850E8030F20F008
:1036200010000590FFE705991198026842E8031021
:103630000028F0D1FFE7FFE71198806BFDF776F9DE
:10364000FFE71198818DC28D891A89B2FFF762FE5A
:10365000FFE776E01199888DC98D401AADF8120008
:103660001198C08D00284BD0FFE7BDF8120000284C
:1036700046D0FFE7FFE7FFE71198006850E8030F27
:1036800020F490700390FFE703991198026842E8D4
:1036900003100028F0D1FFE7FFE7FFE7FFE71198ED
:1036A000006850E8050F20F001000290FFE7029942
:1036B0001198026842E805100028F0D1FFE7FFE703
:1036C0001199202081F83E00119900200863FFE73E
:1036D000FFE71198006850E8030F20F010000190F8
:1036E000FFE701991198026842E803100028F0D121
:1036F000FFE7FFE71198BDF81210FFF70BFEFFE799
:103700001FE09DF84000000600280AD5FFE79DF85D
:103710003C000006002804D5FFE7119801F05CF892
:103720000FE09DF84000400600280AD5FFE79DF80D
:103730003C004006002804D5FFE7119800F0E8FEA1
:10374000FFE712B080BD000080B582B00090009805
:1037500020B9FFE701208DF807003EE0009880695E
:1037600008B1FFE700E0FFE7009890F83D0040B99E
:10377000FFE70099002081F83C00009800F032F843
:10378000FFE70099242081F83D0000980168C8688F
:1037900020F40050C860009800F080FF0098016895
:1037A000086920F49040086100980168486920F099
:1037B0002A00486100980168C86840F40050C86059
:1037C000009900200864009A202182F83D10009A98
:1037D00082F83E108DF80700FFE79DF8070002B061
:1037E00080BD000080B58AB0099000200890079045
:1037F0000690059004900998006844F60041C4F2D0
:10380000000188423CD1FFE7FFE70020039043F628
:103810004000C4F20200016841F400210160006828
:1038200000F4002003900398FFE7FFE700200290D8
:1038300043F63000C4F20200016841F0010101606A
:10384000006800F0010002900298FFE70320049056
:10385000022105910021009106910790082008900F
:103860000020C4F2020004A9FDF740FB009A3420B6
:1038700001901146FDF706FE0198FDF7F9FDFFE7FF
:103880000AB080BD81B0009001B0704781B0009057
:1038900001B07047FFE7FEE780B584B0FFE7002086
:1038A000039043F63000C4F20200016841F40011B5
:1038B0000160006800F4001003900398FFE70B20FC
:1038C0000090002201921146FDF7DCFD0098FDF703
:1038D000CFFD019A102002901146FDF7D3FD02980A
:1038E000FDF7C6FD04B080BD80B592B000201190F8
:1038F00010900F900E900D90FFE700200C9043F673
:103900003000C4F20200016841F004010160006867
:1039100000F004000C900C98FFE7FFE700200B90EC
:1039200043F63000C4F20200016841F080010160FA
:10393000006800F080000B900B98FFE7FFE7002085
:103940000A9043F63000C4F20200016841F0010120
:103950000160006800F001000A900A98FFE7FFE7A5
:103960000020099043F63000C4F20200016841F0E3
:1039700002010160006800F0020009900998FFE769
:10398000FFE70020089043F63000C4F2020001680F
:1039900041F008010160006800F0080008900898F4
:1039A000FFE740F60000C4F20200029042F2030179
:1039B000019100220592FDF775FC059A40F2004046
:1039C000C4F2020004904FF480510391FDF76AFCA9
:1039D000019A029805990D92012206920E920F917A
:1039E00010910DA90791FDF781FADDF80CC004983C
:1039F000059A069B0799CDF834C00E930F9210924A
:103A0000FDF774FA059A0698079904230D930E9210
:103A10000F9040F60040C4F20200FDF767FA12B0C2
:103A200080BD000080B582B040F24C10C2F20000B0
:103A3000019043F60041C4F2000101604FF482712D
:103A40004160002181604FF40062C2600161012287
:103A500042614FF4007282611822C26101624162C8
:103A600081620A21C162FEF7A5FB18B1FFE7FCF7EE
:103A700055FFFFE702B080BD80B594B000210191F1
:103A800013911291119110910F910E910D910C9132
:103A90000B910A9109910891079106910591049162
:103AA000039140F2A410C2F2000002900022C4F27E
:103AB000010202604160816040F6AC52C260016167
:103AC000416180218161FFF79FFB18B1FFE7FCF79F
:103AD00025FFFFE7202012900020139040F2A41051
:103AE000C2F2000012A9FEF7EBFF18B1FFE7FCF7E6
:103AF00015FFFFE770200B9000220C920D920E92A2
:103B00000F921092119240F2A410C2F200000BA981
:103B1000FFF7D8FA18B1FFE7FCF700FFFFE740F224
:103B2000A410C2F200000BA90422FFF7CBFA18B1CF
:103B3000FFE7FCF7F3FEFFE740F2A410C2F200003B
:103B40000BA90822FFF7BEFA18B1FFE7FCF7E6FE63
:103B5000FFE74FF4006003904FF480600490002072
:103B600005901421069107904FF4005108910A9096
:103B700040F2A410C2F2000003A9FEF747FF18B1FB
:103B8000FFE7FCF7CBFEFFE740F2A410C2F2000013
:103B9000FFF738FA14B080BD80B582B040F234200F
:103BA000C2F20000019044F60041C4F2000101603D
:103BB0004FF4E131416000218160C16001610C225C
:103BC00042618161C161FFF7BFFD18B1FFE7FCF7FA
:103BD000A5FEFFE702B080BDFFE7FEE7FFE7FEE7D7
:103BE00088B0079006910592079800F007000490AE
:103BF0000498C0F10700052803D3FFE704200190D3
:103C000004E00498C0F107000190FFE701980390D9
:103C100004980430062803D8FFE70020009003E052
:103C2000049803380090FFE70098029006980399E3
:103C3000012202FA01F101390840029B98400599DE
:103C40009A40013A1140084308B07047704700009D
:103C500080B540F24C10C2F20000FEF793F980BD2F
:103C600080B582B001900198806B0090009900208F
:103C7000C8870099C8860098FEF780F902B080BD19
:103C800080B586B004900391029240F21400C2F213
:103C9000000000684AF6AB21CAF6AA21A0FB011079
:103CA00000094DF68361C4F21B31A0FB0110800CAA
:103CB0004FF47A714843019004984068B0F5827FD0
:103CC00015D1FFE70498039B02996A461160802191
:103CD000002200F027F848B1FFE70499486D40F052
:103CE0002000486503208DF8170017E012E0FFE779
:103CF000019808B9FFE70CE0019801380190FFE74F
:103D0000049800688068C1B20020B0EBD11FEFD1E9
:103D1000FFE7FFE700208DF81700FFE79DF8170089
:103D200006B080BD80B58AB0DDF830C0089007913C
:103D30008DF81B20059305980190FDF7CBFA0246FC
:103D400001980C99891A08440390FDF7C3FA029070
:103D5000039840F21401C2F200010968C1F3CB31AB
:103D600048430490FFE70898006880680799084076
:103D7000401AB0FA80F040099DF81B1088425ED0CE
:103D8000FFE705980130002858D0FFE7FDF7A2FAB9
:103D90000299401A0399884204D2FFE70398002849
:103DA00042D1FFE708980168486820F0E0004860C9
:103DB00008984068B0F5827F13D1FFE708988068C3
:103DC000B0F5004F06D0FFE708988068B0F5806F27
:103DD00007D1FFE708980168086820F040000860F4
:103DE000FFE70898806AB0F5005F0FD1FFE7FFE7B3
:103DF00008980168086820F4005008600898016875
:103E0000086840F400500860FFE7FFE708990120C8
:103E100081F85100FFE70899002081F85000FFE782
:103E200003208DF827000EE0049818B9FFE7002062
:103E30000390FFE7049801380490FFE793E7002020
:103E40008DF82700FFE79DF827000AB080BD00002D
:103E5000704700007047000080B594B008A830217A
:103E6000FCF77AFA002007900690059004900390E2
:103E7000FFE70020029043F64000C4F20200016810
:103E800041F080510160006800F08050029002987B
:103E9000FFE7FFE70020019047F20000C4F20000B6
:103EA000016841F480410160006800F480400190A5
:103EB0000198FFE7012008904FF48030099002211B
:103EC0000E914FF480000F9004201090A8221192C0
:103ED0001291139008A8FDF7F1FC18B1FFE7FCF769
:103EE0001DFDFFE70F2003900220049000200590A5
:103EF0004FF4A05006904FF48050079003A805217E
:103F0000FDF7E2FA18B1FFE7FCF708FDFFE714B090
:103F100080BD00004EF68851CEF20001086840F4E2
:103F2000700008607047000080B540F2EC10C2F2EB
:103F30000000FEF729FF80BD83B002900191029836
:103F40000068009002980021C4F20101884225D047
:103F5000FFE70298B0F1804F20D0FFE7029840F2CF
:103F60000041C4F20001884218D0FFE7029840F6F1
:103F70000001C4F20001884210D0FFE7029840F629
:103F80000041C4F20001884208D0FFE7029840F2E5
:103F90000041C4F2010188420AD1FFE7009820F0F5
:103FA0007000009001984168009808430090FFE776
:103FB00002980021C4F20101884255D0FFE702981F
:103FC000B0F1804F50D0FFE7029840F20041C4F2B8
:103FD0000001884248D0FFE7029840F60001C4F291
:103FE0000001884240D0FFE7029840F60041C4F249
:103FF0000001884238D0FFE7029840F20041C4F245
:104000000101884230D0FFE7029844F20001C4F277
:104010000101884228D0FFE7029844F20041C4F22F
:104020000101884220D0FFE7029844F60001C4F263
:104030000101884218D0FFE7029841F60001C4F25E
:104040000001884210D0FFE7029841F60041C4F217
:104050000001884208D0FFE7029842F20001C4F252
:10406000000188420AD1FFE7009820F440700090D8
:104070000198C168009808430090FFE7009820F07D
:1040800080000199496908430090009802990860EE
:10409000019880680299C862019800680299886254
:1040A00002980021C4F20101884208D0FFE702987B
:1040B00040F20041C4F20101884205D1FFE70198B6
:1040C000006902990863FFE702990120486103B083
:1040D0007047000085B0049003910499086A20F0AD
:1040E000010008620498006A0190049840680090FA
:1040F000049880690290029820F070000290029863
:1041000020F003000290039801680298084302908F
:10411000019820F0020001900398816801980843FB
:10412000019004980021C4F20101884208D0FFE701
:10413000049840F20041C4F2010188420ED1FFE729
:10414000019820F0080001900398C1680198084385
:104150000190019820F004000190FFE704980021ED
:10416000C4F20101884208D0FFE7049840F2004100
:10417000C4F20101884213D1FFE7009820F4807057
:104180000090009820F40070009003984169009816
:104190000843009003988169009808430090FFE766
:1041A00000980499486002980499886103984068CF
:1041B0000499486301980499086205B070470000AB
:1041C00085B0049003910499086A20F010000862F9
:1041D0000498006A019004984068009004988069EF
:1041E0000290029820F4E0400290029820F440707F
:1041F000029003980168029840EA01200290019819
:1042000020F02000019003988168019840EA011095
:10421000019004980021C4F20101884208D0FFE710
:10422000049840F20041C4F2010188420FD1FFE737
:10423000019820F0800001900398C168019840EA3D
:1042400001100190019820F040000190FFE70498D0
:104250000021C4F20101884208D0FFE7049840F22F
:104260000041C4F20101884215D1FFE7009820F413
:1042700080600090009820F40060009003984169ED
:10428000009840EA8100009003988169009840EA14
:1042900081000090FFE70098049948600298049913
:1042A00088610398406804998863019804990862BA
:1042B00005B0704785B0049003910499086A20F412
:1042C000807008620498006A019004984068009029
:1042D0000498C0690290029820F070000290029841
:1042E00020F00300029003980168029808430290AE
:1042F000019820F40070019003988168019840EAC9
:104300000120019004980021C4F20101884208D0E4
:10431000FFE7049840F20041C4F2010188420FD146
:10432000FFE7019820F4006001900398C1680198AC
:1043300040EA01200190019820F480600190FFE79D
:1043400004980021C4F20101884208D0FFE70498D4
:1043500040F20041C4F20101884215D1FFE7009804
:1043600020F480500090009820F4005000900398B2
:104370004169009840EA0110009003988169009813
:1043800040EA01100090FFE7009804994860029805
:104390000499C861039840680499C8630198049916
:1043A000086205B07047000085B00490039104993D
:1043B000086A20F4805008620498006A019004980A
:1043C000406800900498C0690290029820F4E04090
:1043D0000290029820F440700290039801680298BD
:1043E00040EA01200290019820F4005001900398C7
:1043F0008168019840EA0130019004980021C4F2DC
:104400000101884208D0FFE7049840F20041C4F25D
:10441000010188420BD1FFE7009820F48040009012
:1044200003984169009840EA81100090FFE70098E6
:104430000499486002980499C861039840680499F7
:10444000086401980499086205B0704780B540F28D
:104450003420C2F20000FEF767FF80BD80B582B055
:1044600001900198806B009000990020C885009908
:10447000C8840098FEF754FF02B080BD84B003905A
:10448000FFE7FFE70398006850E8030F20F49070FF
:104490000290FFE702990398026842E8031000289F
:1044A000F0D1FFE7FFE7FFE7FFE70398006850E878
:1044B000050F20F001000190FFE7019903980268C1
:1044C00042E805100028F0D1FFE7FFE70398006BF2
:1044D000012814D1FFE7FFE7FFE70398006850E8E1
:1044E000030F20F010000090FFE700990398026886
:1044F00042E803100028F0D1FFE7FFE7FFE7039948
:10450000202081F83E0003990020086304B0704722
:1045100080B582B0019001980168C86820F0400021
:10452000C8600199202081F83D000198FFF7AEF99D
:10453000002002B080BD000080B586B004900498D1
:1045400090F83E00222840F0A180FFE704988068A0
:10455000B0F5805F15D1FFE70498006988B9FFE7DF
:10456000002003900498806A0290049800684068D4
:104570006FF35F20029908800499886A023088628C
:1045800025E00498806A03900020029004988068D7
:10459000B0F5805F08D0FFE70498806850B9FFE766
:1045A0000498006930B9FFE70498006840680399EF
:1045B000087007E004980068406800F07F000399E5
:1045C0000870FFE70499886A01308862FFE7049960
:1045D000C88D0138C8850004002853D1FFE704982E
:1045E0000168C86820F02000C86004980168C868A5
:1045F00020F48070C86004980168486920F00100C8
:1046000048610499202081F83E000498006B01283D
:1046100030D1FFE7049900200863FFE7FFE7049823
:10462000006850E8030F20F010000190FFE70199A7
:104630000498026842E803100028F0D1FFE7FFE782
:10464000049800680068C00600280ED5FFE7FFE761
:1046500000200090049800680068009004980068AA
:10466000406800900098FFE7FFE70498818DFEF70F
:1046700051FE03E00498FFF705F9FFE700208DF8ED
:10468000170007E000208DF8170003E002208DF8E6
:104690001700FFE79DF8170006B080BD80B586B013
:1046A000059005980068006920F44050059A11684B
:1046B000D26810430861059988680B694A69C9691D
:1046C000184310430843049005980068C06849F2F5
:1046D0000C6188430499084305990968C8600598E6
:1046E0000068406920F44070059A1168926910438F
:1046F00048610598006841F20001C4F20101884256
:1047000009D0FFE70598006841F20041C4F20101B9
:10471000884204D1FFE7FDF74BF8039003E0FDF773
:1047200035F80390FFE70598C069B0F5004F29D12F
:10473000FFE703981921A0FB0101059A1368029372
:1047400053685A00DB0FFBF78FFD0299864648F24B
:104750001F53C5F2EB13AEFB0320420910014FF0CB
:10476000640C02FB1CEC322202EBCC02A2FB0332F3
:10477000F82303EA521300EB4300C2F34212104441
:10478000886026E003981921A0FB0101059A1368AF
:10479000019353689A009B0FFBF766FD01998446CD
:1047A00048F21F52C5F2EB12ACFB02304309642001
:1047B00003FB10CC322000EB0C10A0FB0202F02017
:1047C00000EA521000EB0310C2F343121044886059
:1047D000FFE706B080BD000083B00190019890F81B
:1047E0003D0021283AD1FFE701988068B0F5805F4D
:1047F00013D1FFE70198006978B9FFE70198006AD3
:104800000090009800886FF35F2001990968486064
:104810000199086A0230086208E0019A106A411C96
:1048200011620078019909684860FFE70199C88C16
:104830000138C884000468B9FFE701980168C868B6
:1048400020F08000C86001980168C86840F040000E
:10485000C860FFE700208DF80B0003E002208DF810
:104860000B00FFE79DF80B0003B07047FFE7FEE782
:1048700081B08DF803009DF9030000280ED4FFE7F6
:104880009DF9031001F01F02012090404A094EF2E9
:104890000011CEF2000141F82200FFE701B070479D
:1048A0004EF60C50CEF200000068C0F302207047B4
:1048B00082B08DF8070000919DF9070000280AD406
:1048C000FFE7009800019DF907104EF20042CEF27A
:1048D000000288540BE0009800019DF8071001F0D9
:1048E0000F014EF61452CEF200028854FFE702B0D8
:1048F0007047000083B00290029800F0070000901B
:104900004EF60C51CEF200010868019001984FF666
:10491000FF02104001900198009A40EA0220002214
:10492000C0F2FA52104301900198086003B070473A
:1049300080B582B0019000F02BF80090FFE700F006
:1049400027F80099401A0199884202D2FFE700BF78
:10495000F5E702B080BD000080B584B00020019072
:104960000390FCF7CBFCFFF777FAFEF7BDFFFEF7ED
:1049700093FFFFF757F8FFF77FF8FFF70DF9FBF705
:10498000A5FF01980290FFE7029801300290FBE733
:1049900080B584B0FFE7FCF79DFC039042F2240051
:1049A000C4F2000000680290FFE703980190FCF752
:1049B00091FC014601988842EDD1FFE70398029AE5
:1049C0004FF47A7100FB012004B080BDF1EE100AB3
:1049D0004FF6FF71C0F2C03120EA010040F0407094
:1049E000E1EE100A70470000000000000000010224
:1049F0000304060708090000000001020304000682
:104A00001016000610160000284A000800000020BA
:104A100020000000C4010008484A000820000020CF
:104A200060080000E00100084C0100200004024082
:104A30000010000000080240002000000024F400E4
:084A400001000000100000005D
:040000050800018965
:00000001FF
